1 PSDI 0000001240201240229201920830           - 2099183445                 ICATU SEGUROS - SDW MENSALIDADE SD-WAN                                000000001000UNID  00000066673   SPO -SP    -  999999999999M
1 PSDI 0000002240201240229201920830           - 2099183445                 ICATU SEGUROS - SDW MENSALIDADE SD-WAN                                000000001000UNID  00000007248   SPO -SP    -  999999999999M
1 PSDI 0000003240201240229201922763           - 2099164452                 ICATU SEGUROS - SDWAMENSALIDADE SD-WAN                                000000001000UNID  00000007248   SPO -SP    -  999999999999M
1 PSDI 0000004240201240229201922763           - 2099164452                 ICATU SEGUROS - SDWAMENSALIDADE SD-WAN                                000000001000UNID  00000066673   SPO -SP    -  999999999999M
1 PSDI 000000524020124022920199724            - 2099140328                 ICATU SEGUROS - SDW MENSALIDADE SD-WAN                                000000001000UNID  00000007248   SPO -SP    -  999999999999M
1 PSDI 000000624020124022920199724            - 2099140328                 ICATU SEGUROS - SDW MENSALIDADE SD-WAN                                000000001000UNID  00000066673   SPO -SP    -  999999999999M
1 PSDI 0000007240201240229202046758           - 2099169939                 ICATU SEGUROS - SDW MENSALIDADE SD-WAN                                000000001000UNID  00000060475   SDR -BA    -  999999999999M
1 PSDI 0000008240201240229202046758           - 2099169939                 ICATU SEGUROS - SDW MENSALIDADE SD-WAN                                000000001000UNID  00000007248   SDR -BA    -  999999999999M
1 PSDI 0000009240201240229202046760           - 2099169940                 ICATU SEGUROS - SDW MENSALIDADE SD-WAN                                000000001000UNID  00000007248   SPO -SP    -  999999999999M
1 PSDI 0000010240201240229202046760           - 2099169940                 ICATU SEGUROS - SDW MENSALIDADE SD-WAN                                000000001000UNID  00000060475   SPO -SP    -  999999999999M
1 PSDI 0000011240201240229202058771           - 2099152046                 ICATU - SDWAN - CUIAMENSALIDADE SD-WAN                                000000001000UNID  00000073921   SPO -SP    -  999999999999M
1 PSDI 0000012240201240229202061983           - 2099152046                 ICATU SEGUROS - SDW MENSALIDADE SD-WAN                                000000001000UNID  00000073921   SPO -SP    -  999999999999M
1 PSDI 0000013240201240229202061985           - 2099152046                 ICATU SEGUROS - SDW MENSALIDADE SD-WAN                                000000001000UNID  00000073921   SPO -SP    -  999999999999M
1 PSDI 0000014240201240229202061987           - 2099152046                 ICATU SEGUROS - SDW MENSALIDADE SD-WAN                                000000001000UNID  00000073921   SPO -SP    -  999999999999M
1 PSDI 0000015240201240229202061989           - 2099152046                 ICATU SEGUROS - SDW MENSALIDADE SD-WAN                                000000001000UNID  00000073921   SPO -SP    -  999999999999M
1 PSDI 0000016240201240229202061991           - 2099152046                 ICATU SEGUROS - SDW MENSALIDADE SD-WAN                                000000001000UNID  00000073921   SPO -SP    -  999999999999M
1 PSDI 0000017240201240229202061992           - 2099152046                 ICATU SEGUROS - SDW MENSALIDADE SD-WAN                                000000001000UNID  00000073921   SPO -SP    -  999999999999M
1 PSDI 0000018240201240229202061994           - 2099152046                 ICATU SEGUROS - SDW MENSALIDADE SD-WAN                                000000001000UNID  00000073921   SPO -SP    -  999999999999M
1 PSDI 0000019240201240229202061996           - 2099152046                 ICATU SEGUROS - SDW MENSALIDADE SD-WAN                                000000001000UNID  00000073921   SPO -SP    -  999999999999M
1 PSDI 0000020240201240229202061999           - 2099152046                 ICATU SEGUROS - SDW MENSALIDADE SD-WAN                                000000001000UNID  00000073921   SPO -SP    -  999999999999M
1 PSDI 0000021240201240229202062003           - 2099152046                 ICATU SEGUROS - SDW MENSALIDADE SD-WAN                                000000001000UNID  00000073921   SPO -SP    -  999999999999M
1 PSDI 0000022240201240229202062005           - 2099152046                 ICATU SEGUROS - SDW MENSALIDADE SD-WAN                                000000001000UNID  00000073921   SPO -SP    -  999999999999M
1 PSDI 0000023240201240229202062007           - 2099152046                 ICATU SEGUROS - SDW MENSALIDADE SD-WAN                                000000001000UNID  00000073921   SPO -SP    -  999999999999M
1 PSDI 0000024240201240229202062009           - 2099152046                 ICATU SEGUROS - SDW MENSALIDADE SD-WAN                                000000001000UNID  00000073921   SPO -SP    -  999999999999M
1 PSDI 0000025240201240229202062011           - 2099152046                 ICATU SEGUROS - SDW MENSALIDADE SD-WAN                                000000001000UNID  00000073921   SPO -SP    -  999999999999M
1 PSDI 0000026240201240229202062013           - 2099152046                 ICATU SEGUROS - SDW MENSALIDADE SD-WAN                                000000001000UNID  00000073921   SPO -SP    -  999999999999M
1 PSDI 0000027240201240229202062015           - 2099152046                 ICATU SEGUROS - SDW MENSALIDADE SD-WAN                                000000001000UNID  00000073921   SPO -SP    -  999999999999M
1 PSDI 0000028240201240229202062017           - 2099152046                 ICATU SEGUROS - SDW MENSALIDADE SD-WAN                                000000001000UNID  00000073921   SPO -SP    -  999999999999M
1 PSDI 0000029240201240229202062019           - 2099152046                 ICATU SEGUROS - SDW MENSALIDADE SD-WAN                                000000001000UNID  00000135521   RJO -RJ    -  999999999999M
1 PSDI 0000030240201240229202062021           - 2099152046                 ICATU SEGUROS - SDW MENSALIDADE SD-WAN                                000000001000UNID  00000073921   SPO -SP    -  999999999999M
1 PSDI 0000031240201240229202062023           - 2099152046                 ICATU SEGUROS - SDW MENSALIDADE SD-WAN                                000000001000UNID  00000135521   SPO -SP    -  999999999999M
1 PSDI 0000032240201240229202162229           - 2099152046                 ICATU SEGUROS - SDW MENSALIDADE SD-WAN                                000000001000UNID  00000073921   SPO -SP    -  999999999999M
1 PSDI 0000033240201240229202162231           - 2099152046                 ICATU SEGUROS - SDW MENSALIDADE SD-WAN                                000000001000UNID  00000073921   SPO -SP    -  999999999999M
1 PSDI 0000034240201240229202162233           - 2099152046                 ICATU SEGUROS - SDW MENSALIDADE SD-WAN                                000000001000UNID  00000073921   SPO -SP    -  999999999999M
1 PSDI 0000035240201240229202177775           - 2099152046                 ICATU SEGUROS - SDW MENSALIDADE SD-WAN                                000000001000UNID  00000073921   SPO -SP    -  999999999999M
1 PSDI 0000036240201240229202185145           - 2099152046                 ICATU SEGUROS - SDW MENSALIDADE SD-WAN                                000000001000UNID  00000073921   SPO -SP    -  999999999999M
1 PSDI 0000037240201240229202191967           - 2099189892                 ICATU SEGUROS - SDW MENSALIDADE SD-WAN                                000000002000UNID  00000310260   SPO -SP    -  999999999999M
